:030C0B00F7FDFBF7
:100BD700020E0000020B000002100000C100010815
:040BE70000010D00FC
:0C0B9300AB11FA7FE0120BF27F057E0030
:100B9F00E4FDFCC3ED9FEC9E5015E4FBFA0BBB008C
:0F0BAF00010AEB64644A70F50DBD00010C80E48F
:010BBE002214
:0E0BFD00D2B4C2998F993099FDC299C2B42228
:060BEC007B647A007FE04B
:0B0BF200EF4DFF120BFDAF03020BFDE7
:100B2200E4FFE4FCFD740B2DF582740C3CF583E4C8
:100B320093F5A0AEA06E6014AF06740B2DF582740F
:100B42000C3CF583E493F5A0B5A0EF220DBD0001A6
:090B52000CED64034C70CE80C967
:050ACA00120B228F0950
:100ACF00EF120B6D0B04770B107B0B1C7D0B01B71B
:100ADF000B0DBB0B19BD0AFED70B0ADB0B16DD0A7C
:100AEF00FBE70B07EB0B13ED00000B1F7F01227FC2
:100AFF0004227F07227F0A227F02227F05227F089E
:100B0F00227F00227F03227F06227F09227F0B2272
:030B1F007FFF2233
:100BBF0075A001C2B4758920758DFD758BFD759873
:080BCF0050D28ED2AFD2AC224D
:10080000120BBF7B077A007D087FE0120BF2120A01
:10081000CA8F0AE4F50EF50FF50BF50CE50A24FE78
:1008200070030208A514700302091514700302096D
:10083000501470030209B9147003020A2C240570C5
:10084000C2751000751101AB11AA107D017FE08007
:100850004F120ACA8F0AE50AB40A03020969850E13
:100860000B850F0CAF0AEF3395E0F50E8F0FAE0B33
:10087000AF0C7C007D0A120B5BE50F2FF511E50E26
:100880003EF5107D01120B93AB11AA107D017FD0B4
:10089000120BF27F05120B9FAB11AA107D017FB0E6
:1008A000120BF280AC751000751101AB11AA107D0E
:1008B000027FE0805B120ACA8F0AE50AB40A13E5D8
:1008C000114510700A7B32FA7D027FB0120BF202E2
:1008D0000969E50AB40B077D02120BEC8030850E26
:1008E0000B850F0CAF0AEF3395E0F50E8F0FAE0BB3
:1008F000AF0C7C007D0A120B5BE50F2FF511E50EA6
:100900003EF5107D02120B93AB11AA107D027FB051
:10091000120BF280A07B017A007D037FE0120BF2C4
:10092000120ACA8F0AE50AB4010D7B077A007D0816
:10093000120B967B018010E50AB402E47B077A0073
:100940007D08120B967B027A007D037FB00209DAE4
:10095000E4F510F511AB11AA107D047FE08055126B
:100960000ACA8F0AE50AB40A0A7B077A007D087F63
:10097000E08067E50AB40B077D04120BEC80338539
:100980000E0B850F0CAF0AEF3395E0F50E8F0FAE0F
:100990000BAF0C7C007D0A120B5BE50F2FF511E508
:1009A0000E3EF510AB11FA7D04120B96AB11AA1096
:1009B0007D047FB0120BF280A6E4F510F511AB11A7
:1009C000AA107D057FE0805F120ACA8F0AE50AB48B
:1009D0000A0E7B077A007D087FE0120BF202080303
:1009E000E50AB40B0D7B647A007D057FE0120BF203
:1009F0008033850E0B850F0CAF0AEF3395E0F50EB3
:100A00008F0FAE0BAF0C7C007D0A120B5BE50F2F36
:100A1000F511E50E3EF510AB11FA7D05120B96AB04
:100A200011AA107D057FB0120BF2809CE4FBFA7DC9
:0E0A3000067FE0120BF27FB0120BF2020803F9
:03000000020A3EB3
:0C0A3E00787FE4F6D8FD758120020A855F
:100B5B00EF8DF0A4A8F0CF8CF0A428CE8DF0A42EAE
:020B6B00FE2268
:100B6D00D083D082F8E4937012740193700DA3A317
:100B7D0093F8740193F5828883E47374029368602B
:060B8D00EFA3A3A380DF2B
:100A4A00020800E493A3F8E493A34003F68001F2BA
:100A5A0008DFF48029E493A3F85407240CC8C333AD
:100A6A00C4540F4420C8834004F456800146F6DF7C
:100A7A00E4800B0102040810204080900BD7E47E2A
:100A8A00019360BCA3FF543F30E509541FFEE49371
:100A9A00A360010ECF54C025E060A840B8E493A338
:100AAA00FAE493A3F8E493A3C8C582C8CAC583CA63
:100ABA00F0A3C8C582C8CAC583CADFE9DEE780BE1B
:010BEB000009
:00000001FF
