:100D9300312E5475726E7300322E506F7765720068
:100DA300332E4469726563746F727900342E4C611B
:100DB3006D703100352E4C616D703200362E5374D8
:100DC30061727400536574205475726E20436F759D
:100DD3006E74005475726E733A20256420202020AF
:100DE300002A202D20534156450053657420706F0F
:100DF30077657200506F7765723A20256420202052
:100E0300200023202D2031303025005365742044E9
:100E130069726563746F72790031202D204C4546E9
:100E2300540032202D205249474854005365742002
:100E33004C616D70203120506F776572005365747B
:100E4300204C616D70203220506F776572004D6FBA
:100E5300746F722072756E6E696E672E2E00506C01
:0C0E63006561736520776169742E2E00B4
:10124000C109010A00010C00C10A010800010900DE
:10122D00758920758DFD758BFD759850D28ED2AC5C
:03123D00D2AF220B
:0300230002105771
:0B105700C0E0C0D075D000C006C0078C
:10106200309823AF99C298E5087011EF54F0FEBE94
:10107200E014EF540FF509750801800A85090A8FFB
:061082000CD20975080004
:09108800D007D006D0D0D0E03230
:040B5C008F228D2334
:100B6000121263E52214B408004003020D92900BA8
:100B70007C75F003A4C58325F0C58373020BF402D2
:100B80000C3C020C94020CC4020D1B020D72020DEF
:100B900092020B947D017F011211307BFF7A0D7957
:100BA000931211A97D0A7F011211307BFF7A0D7912
:100BB0009B1211A97D017F021211307BFF7A0D7902
:100BC000A31211A97D017F031211307BFF7A0D79E9
:100BD000AF1211A97D097F031211307BFF7A0D79C5
:100BE000B71211A97D017F041211307BFF7A0D79B4
:100BF000BF020D8F7D017F011211307BFF7A0D79CD
:100C0000C71211A97D017F021211307537FF7538A7
:100C10000D7539D6753A0085233B7B007A0079241F
:100C200012085C7B007A0079241211A97D017F04EF
:100C30001211307BFF7A0D79E4020D8F7D017F0167
:100C40001211307BFF7A0D79ED1211A97D017F021F
:100C50001211307537FF75380D7539F7753A008503
:100C6000233B7B007A00792412085C7B007A0079B0
:100C7000241211A97D017F031211307BFF7A0E79B6
:100C8000051211A97D017F041211307BFF7A0D79C5
:100C9000E4020D8F7D017F011211307BFF7A0E7906
:100CA0000E1211A97D017F021211307BFF7A0E799D
:100CB0001C1211A97D017F031211307BFF7A0E797E
:100CC00025020D8F7D017F011211307BFF7A0E7995
:100CD0002F1211A97D017F021211307537FF75386F
:100CE0000D7539F7753A0085233B7B007A0079242E
:100CF00012085C7B007A0079241211A97D017F0320
:100D00001211307BFF7A0E79051211A97D017F0443
:100D10001211307BFF7A0D79E480747D017F01121E
:100D200011307BFF7A0E79401211A97D017F0212EA
:100D300011307537FF75380D7539F7753A00852311
:100D40003B7B007A00792412085C7B007A007924CE
:100D50001211A97D017F031211307BFF7A0E7905F4
:100D60001211A97D017F041211307BFF7A0D79E405
:100D7000801D7D017F011211307BFF7A0E795112A7
:100D800011A97D017F021211307BFF7A0E79611269
:020D900011A9A7
:010D9200223E
:10121000C2B4120F8912122D7D077F08120B5C30A9
:0D12200009FDAD0CAF0A120B5CC20980F293
:100FDC00537973742E20576275646F77616E652038
:100FEC002D2D2D2D2D2D2D2D2D2D2D2D2D2D2D2D25
:100FFC002020506572736F6E616C69612020202D0A
:10100C002D2D2D2D2D2D2D2D2D2D2D2D2D2D2D0031
:10109100C2A4C2A5EFC4540F53A0F042A0D2A6C26D
:1010A100A6EF540F53A0F042A0D2A6C2A643A00FB0
:1010B100D2A5C2A4D20B300B0ED2A6A2A3920BC210
:0710C100A6D2A6C2A680EF33
:0110C8002205
:1010C900D2A4C2A5EFC4540F53A0F042A0D2A6C225
:1010D900A6EF540F53A0F042A0D2A6C2A643A00F78
:1010E900D2A5C2A4D20C300C0ED2A6A2A3920CC2D5
:0710F900A6D2A6C2A680EFFB
:0111000022CC
:0612510014F9120E6FFFFC
:031257000210C9B9
:10113000AC07BC0107ED247FFF121091BC0207ED44
:1011400024BFFF121091BC0307ED248FFF121091F2
:0B115000BC0407ED24CFFF1210912219
:0611F0008B108A11891228
:1011F6007D011211301DAB100512E512AA11700205
:0912060005111212510DBD10ED8D
:01120F0022BC
:10101C008B138A1489157F011211F0AB13E515247B
:10102C0010F9E43514FA7F021211F0AB13E5152414
:10103C0020F9E43514FA7F031211F0AB13E51524F3
:0B104C0030F9E43514FA7F040211F0C3
:09125A007BFF7A0F79DC02101C05
:1011CE008B168A178918121130AB16AA17A9181286
:1011DE000E6F600D0518E51870020517121251807A
:0211EE00E822F5
:100F890012117575A083D2A612115BC2A61211683F
:100F9900D2A612115BC2A612115BD2A612115BC2B4
:100FA900A612115BC2A0D2A612115BC2A612115BD6
:100FB9007F281210917F011210917F081210917FE2
:100FC9000C1210917F061210917F0F1210917F0160
:030FD90002109172
:061101008B198A1A891BFC
:10110700EF33333354F82440FF121091E4FDAB1949
:10111700AA1AA91B8D82758300120E88FF1210C9A7
:091127000DBD08EA7F8002109161
:081263007F01121091021168D5
:1011A9008B348A358936AB34AA35A936120E6F606D
:1011B900130536E5367002053514F9120E6FFF1264
:0511C90010C980E222C4
:10115B00750E04750DE0D50DFDD50EFA22750E1426
:10116B00750D70D50DFDD50EFA22750EC3750D8953
:07117B00D50DFDD50EFA228F
:03000000020EFDF0
:0C0EFD00787FE4F6D8FD758147020F44B1
:100E6F00BB010689828A83E0225002E722BBFE0281
:090E7F00E32289828A83E49322B4
:100E8800BB010CE58229F582E5833AF583E022501F
:100E980006E92582F8E622BBFE06E92582F8E22269
:0D0EA800E58229F582E5833AF583E4932283
:10080000E5432437F8E60543227834300702783789
:10081000E475F001120EC7020E6F2000EB7F2ED29E
:10082000008018EF540F2490D43440D4FF30040BD0
:10083000EF24BFB41A0050032461FFE544600215A1
:10084000440547E5477002054630070D7834E475E6
:10085000F001120EC7EF020EB50211827403D20727
:100860008003E4C207F5438B348A358936E4F544C6
:10087000F546F547E54460077F2012083B80F57593
:1008800045FFC201C200C202C203C205C206C208BD
:10089000120809FF700D3007057F0012084CAF47A2
:1008A000AE4622B4255FC2D5C204120809FF24D087
:1008B000B40A00501A75F00A784430D50508B6FF1E
:1008C0000106C6A426F620D5047002D20380D924DE
:1008D000CFB41A00EF5004C2E5D204020A4CD20190
:1008E00080C6D20080C0D20280BCD2D580BAD205E8
:1008F00080B47F2012083B2002077401B5440040F9
:10090000F1120800FF12083B020874D208D20680D8
:1009100095120800FB120800FA120800F94A4B7001
:1009200006791D7A0B7BFF20022EE544602A7E00AB
:100930008E82758300120E8860060EEE654570F09B
:10094000C2D5EBC0E0EAC0E0E9C0E0EE120A93D005
:10095000E0F9D0E0FAD0E0FB120E6FFF60AAEBC026
:10096000E0EAC0E0E9C0E012083BD0E02401F9D0A1
:10097000E03400FAD0E0FBE5450460DCD545D980E1
:10098000877BFF7A0A798FD202809C791080027966
:1009900008C206C2088008D2D5790A8004790AC242
:1009A000D5E545047002F545E4FAFDFEFF120800A6
:1009B000FC7B08200113120800FD7B1030000A1296
:1009C0000800FE120800FF7B20EC3382D592D55040
:1009D00013C3E43000069FFFE49EFEE42001039D64
:1009E000FDE49CFCE4CBF8C201EC700CCFCECDCC86
:1009F000E824F8F870F38017C3EF33FFEE33FEED11
:100A000033FDEC33FCEB33FB994002FB0FD8E9EBF1
:100A1000300105F8D0E0C448B201C0E00AEC4D4E08
:100A20004F78207B0070C2EAB5450040BCC0E012A0
:100A30000A95D0F0D0E0200104C4C0E0C4B201C0E7
:100A4000F0120824D0F0D5F0EB020874120ED7098A
:100A50001153098B5808E24C08DE42098F4F099761
:0F0A60004409974908F743099D550981460981C3
:100A6F00450981470B3D5008E62D08EA2E090D2B4D
:100A7F0008EE23090B200B262A08A64800000905BB
:100A8F003F3F3F00790AA2D5200314300509B91062
:100A9F00020404B9080104A2D52006025001042063
:100AAF0002689202B544005034C0E07F2030031931
:100ABF007F30A20272067205500F120AECC202C2F8
:100ACF0006C205C2087F30800F300503E9C0E0126F
:100ADF00083B300503D0E0F9D0E0B544CC30051722
:100AEF007F30B9100C12083B7F583004077F788095
:100AFF0003B9080312083B3002057F2D02083B7F24
:100B0F00202008F87F2B2006F322920280CF286E38
:100B1F00756C6C2900D2011208003001F8C20178FF
:100B2F004430D50108F60208A62D50434958120843
:100B3F00002403B405004001E4900B389312082CF5
:0D0B4F00743A12082CD20375440402098B7D
:100F0900021210E493A3F8E493A34003F68001F2DC
:100F190008DFF48029E493A3F85407240CC8C333E9
:100F2900C4540F4420C8834004F456800146F6DFB8
:100F3900E4800B0102040810204080901240E47EF6
:100F4900019360BCA3FF543F30E509541FFEE493AD
:100F5900A360010ECF54C025E060A840B8E493A374
:100F6900FAE493A3F8E493A3C8C582C8CAC583CA9F
:100F7900F0A3C8C582C8CAC583CADFE9DEE780BE57
:01125000009D
:100EB500BB010689828A83F0225002F722BBFE011C
:020EC500F32216
:100EC700FAE6FB0808E6F925F0F618E6CA3AF6222C
:100ED700D083D082F8E4937012740193700DA3A3AA
:100EE70093F8740193F5828883E4737402936860BE
:060EF700EFA3A3A380DFBE
:10118200EFB40A07740D12118D740A309811A899E0
:10119200B8130CC2983098FDA899C298B811F630CD
:0711A20099FDC299F59922A5
:00000001FF
