:0A094E003F065B4F666D7D077F6F6B
:10093900010D00010C00C100010A00010B000108B2
:0409490000010900A0
:030023000208CB05
:0B08CB00C0E0C0D075D000C006C00720
:1008D600309823AF99C298E5087011EF54F0FEBE28
:1008E600D014EF540FF509750801800A85090A8F9F
:0608F6000BD200750800A2
:0908FC00D007D006D0D0D0E032C4
:03000B0002088C5C
:10088C00C0E0C0F0C083C082C0D0758CFF758A8D6B
:10089C00E50B75F00A8475F00A84E5F090094E9327
:1008AC0090FE00F0E50B75F00A84E5F090094E938C
:0F08BC0090FD00F0D0D0D082D083D0F0D0E032C9
:10090500758921758DFD758BFD759850D28E758C09
:0D091500FF758A8DD2A9D28CD2ACD2AF2250
:10092200C2B4E4F59012090590FE00F090FD00F0CB
:070932003000FDC20080F956
:03000000020800F3
:0C080000787FE4F6D8FD758120020847DF
:10080C00020922E493A3F8E493A34003F68001F2D7
:10081C0008DFF48029E493A3F85407240CC8C333ED
:10082C00C4540F4420C8834004F456800146F6DFBC
:10083C00E4800B0102040810204080900939E47E0A
:10084C00019360BCA3FF543F30E509541FFEE493B1
:10085C00A360010ECF54C025E060A840B8E493A378
:10086C00FAE493A3F8E493A3C8C582C8CAC583CAA3
:10087C00F0A3C8C582C8CAC583CADFE9DEE780BE5B
:01094D0000A9
:00000001FF
