:10097F00011000010F00010D00010E00010B32C12B
:10098F0003010A00010C00C102C104C181C10001B1
:05099F00080001090041
:1009E200C2ACD2B4C2998F993099FDC299C2B4D225
:0209F200AC2235
:0B09F400EF4DFF1209E2AF030209E221
:03000B000208F0F8
:1008F000C0E0C0D0758CFF758A00050FE50FC3946A
:10090000644003750F00E50FC3950D5004D2A2801B
:1009100002C2A2E50FC3950E5004D2A18002C2A16B
:1009200030000BE50FC3950B5004D2A58002C2A581
:1009300030010BE50FC3950B5004D2A68002C2A66E
:05094000D0D0D0E03230
:030003000209C629
:1009C600C0E0C0D01510E510D394004002D202E575
:0C09D600107004C2A3C2A4D0D0D0E03244
:030023000209458A
:0B094500C0E0C0D075D000C006C007A5
:10095000309823AF99C298E5087011EF54F0FEBEAD
:10096000B014EF540FF509750801800A85090A8F44
:060970000CD20375080023
:09097600D007D006D0D0D0E03249
:1009A500758921758DFD758BFD759850D28E758C69
:1009B500FF758A9CD2A9D28CD288D2A8D2ACD2AFEC
:0109C500220F
:10088C001209A5C2B4E4F5A0C2A3C2A4300341E589
:10089C000A24FE6015146017146025146027146078
:1008AC002924057029850C108024850C0B801FE5EC
:1008BC000CB40106D201C2008014C201D200800E19
:1008CC00850C0E8009850C0D8004D2A3D2A4C20322
:1008DC003002B9AF10EFFB7A007D017FD01209F422
:0408EC00C20280A81C
:03000000020800F3
:0C080000787FE4F6D8FD758120020847DF
:10080C0002088CE493A3F8E493A34003F68001F26E
:10081C0008DFF48029E493A3F85407240CC8C333ED
:10082C00C4540F4420C8834004F456800146F6DFBC
:10083C00E4800B010204081020408090097FE47EC4
:10084C00019360BCA3FF543F30E509541FFEE493B1
:10085C00A360010ECF54C025E060A840B8E493A378
:10086C00FAE493A3F8E493A3C8C582C8CAC583CAA3
:10087C00F0A3C8C582C8CAC583CADFE9DEE780BE5B
:0109A4000052
:00000001FF
